:020000040800F2
:100000006010002009170008AD240008B92400087A
:10001000C1240008C9240008D12400080000000001
:10002000000000000000000000000000D9240008CB
:10003000E524000800000000F1240008FD24000869
:100040007917000879170008791700087917000850
:100050007917000879170008791700087917000840
:100060007917000879170008791700087917000830
:100070007917000879170008791700087917000820
:100080007917000879170008791700087917000810
:100090007917000879170008791700087917000800
:1000A00079170008791700087917000879170008F0
:1000B00079170008791700087917000879170008E0
:1000C00079170008791700087917000879170008D0
:1000D00079170008791700087917000879170008C0
:1000E0007917000879170008092500087917000812
:1000F00079170008791700087917000879170008A0
:10010000791700087917000879170008791700088F
:10011000791700087917000879170008791700087F
:10012000791700087917000879170008791700086F
:10013000791700087917000879170008791700085F
:100140007917000879170008791700084D2500086D
:10015000791700087917000879170008791700083F
:10016000791700087917000879170008791700082F
:10017000791700087917000879170008791700081F
:10018000791700087917000890B484B000AF0246D0
:100190000B46FA71BB714FF00003FB60BB7903F0B3
:1001A00003034FEA83034FF00F0202FA03F3FB60ED
:1001B0004FF46053C4F20103BA794FEA9202D2B20B
:1001C00010464FF46052C4F20102B9794FEA91012E
:1001D000C9B201F1020152F82110FA686FEA020275
:1001E000114000F1020243F822104FF46053C4F2B0
:1001F0000103BA794FEA9202D2B210464FF460522C
:10020000C4F20102B9794FEA9101C9B201F10201C8
:1002100052F82110FC79BA7902F003024FEA820207
:1002200004FA02F2114300F1020243F8221007F12E
:100230001007BD4690BC704780B485B000AF7860B1
:100240004FF00003FB607B68DB684FF0FF325A60C1
:100250007B68DB686FF080425A61FB6843F00043C3
:10026000FB60FB6843F40063FB607B68DB68FA6853
:100270009A6107F11407BD4680BC704780B586B00F
:1002800000AF78604FF00003FB744FF000037B6118
:100290004FF00003FB604FF0030002F01FFD7B688E
:1002A000DB681B69FB607B6903F101037B617A6991
:1002B0004FF45463C0F203039A4202D94FF0000393
:1002C0002AE0FB6803F00043002BE4D04FF000036A
:1002D0007B61FB6843F00103FB607B68DB68FA68C5
:1002E0001A617B68DB681B69FB607B6903F10103B2
:1002F0007B617A694FF45463C0F203039A4205D8D4
:10030000FB6803F00103002BEBD100E000BF4FF0CE
:10031000030002F0E3FCFB7C184607F11807BD461A
:1003200080BD00BF80B489B000AFF860B960FA71D9
:10033000BB804FF00003FB76FB68DB78002B2CD1F1
:100340004FF000037B614FF00003FB61BB8803F1BA
:100350000303002B01DA03F103034FEAA3037B61DC
:10036000FB79FA6803F132034FEA8303D3189B68E1
:100370003B614FF00003FB610BE0BB681A683B690F
:100380001A60FB6903F10103FB61BB6803F104031D
:10039000BB60FA697B699A42EFD3FB7E184607F18E
:1003A0002407BD4680BC704780B489B000AFF860B8
:1003B000B9601346FB804FF00003FB61FB8803F13B
:1003C0000303002B01DA03F103034FEAA303BB612C
:1003D000FB68D3F8D0307B614FF00003FB610BE08A
:1003E0007B691A68BB681A60FB6903F10103FB6152
:1003F000BB6803F10403BB60FA69BB699A42EFD39F
:10040000BB68184607F12407BD4680BC704700BF93
:1004100080B487B000AF78600B46FB704FF00003EC
:100420003B614FF00003FB737B684FF00002DA7012
:100430007B684FF001029A707B684FF040029A800F
:10044000FB78012B17D14FF0A0433B617B684FF045
:100450000102DA727B684FF008021A707B684FF075
:1004600004025A707B684FF4A072DA807B684FF008
:1004700002021A7217E0FB78002B14D14FF0000330
:10048000C4F204033B617B684FF00002DA727B68C0
:100490004FF00C021A707B684FF006025A707B68AE
:1004A0004FF4A062DA803A697B68DA603B6903F551
:1004B00000631A467B681A614FF000037B6123E0FA
:1004C0007B694FEA43123B69D31803F510631A4660
:1004D00079687B6903F104034FEA8303CB189A60C0
:1004E0007B694FEA43123B69D31803F530631A4620
:1004F00079687B6903F114034FEA8303CB185A60D0
:100500007B6903F101037B617B685B781A467B6939
:100510009A42D5D83B6903F580631A467B685A61D5
:100520003B6903F588631A467B68C3F8CC204FF01B
:1005300000037B6113E07B694FEA43123B69D318E8
:1005400003F5A0631A4679687B6903F122034FEA39
:100550008303CB189A607B6903F101037B617B689D
:100560001B781A467B699A42E5D84FF000037B61FD
:1005700013E07B694FEA03323B69D31803F58053DC
:100580001A4679687B6903F132034FEA8303CB187B
:100590009A607B6903F101037B617B681B781A46D3
:1005A0007B699A42E5D83B6903F560631A467B682C
:1005B000C3F80C21FB7B184607F11C07BD4680BC25
:1005C000704700BF80B586B000AF78604FF0000381
:1005D000FB754FF000033B614FF00003FB604FF0F1
:1005E0000003BB607B681B7A012B44D17B68DB680E
:1005F0009B6BFB60FB686FF31043FB607B685B7A6F
:10060000002B03D0FB6843F48013FB607B68DB683E
:10061000FA689A634FF000033B617B68DB68DB6834
:100620003B613B696FF386133B613B696FF3965304
:100630003B613B696FF351433B613B696FF3D343CC
:100640003B617B68DB683A69DA607868FFF716FE21
:100650007B68DB78012B40D1BB684FF0050262F369
:100660004403BB60BB6843F02003BB607B68DB686E
:10067000BA689A6031E07B68DB68DB683B613B69A4
:1006800043F040033B617B68DB683A69DA60786875
:10069000FFF7F4FD4FF00003FB60FB6843F4803389
:1006A000FB60FB6843F48023FB60FB6843F400239A
:1006B000FB60FB6843F40013FB607B685B7A002BF4
:1006C00003D0FB6843F48013FB607B68DB68FA6847
:1006D0009A634FF0140002F02DFB7B68DB78012B4E
:1006E00011D17B68DB689B68BB60BB684FF005027B
:1006F00062F34403BB60BB6843F02003BB607B68CC
:10070000DB68BA689A60FB7D184607F11807BD469A
:1007100080BD00BF80B485B000AF78604FF00003AB
:10072000FB734FF00003BB60BB6843F00103BB6089
:100730007B68DB687A68D2689168BA680A439A6015
:10074000FB7B184607F11407BD4680BC704700BF0D
:1007500080B485B000AF78604FF00003FB734FF0BA
:100760000003BB60BB6843F00103BB607B68DB68D0
:100770007A68D2689168BA686FEA02020A409A60A1
:10078000FB7B184607F11407BD4680BC704700BFCD
:1007900080B586B000AF786039604FF00003FB741D
:1007A0004FF000037B614FF00003FB60FB6843F0F8
:1007B0002003FB603B68DBB203F01F03DAB2FB6887
:1007C00062F38A13FB607B68DB68FA681A617B68F6
:1007D000DB681B69FB607B6903F101037B617A695C
:1007E0004FF45463C0F203039A4205D8FB6803F048
:1007F0002003002BEBD100E000BF4FF0030002F01C
:100800006DFAFB7C184607F11807BD4680BD00BF96
:1008100080B586B000AF78604FF00003FB744FF0F6
:1008200000037B614FF00003FB60FB6843F01003A3
:10083000FB607B68DB68FA681A617B68DB681B69B0
:10084000FB607B6903F101037B617A694FF45463B8
:10085000C0F203039A4205D8FB6803F01003002B93
:10086000EBD100E000BF4FF0030002F037FAFB7C51
:10087000184607F11807BD4680BD00BF80B584B09B
:1008800000AF78600B46FB704FF00003FB737B6892
:10089000DB68DB68BB60BB686FF35D73BB60BB6824
:1008A0006FF39E73BB60FB78012B04D1BB6843F0F0
:1008B0000053BB6006E0FB78002B03D1BB6843F01C
:1008C0008043BB607B68DB68BA68DA604FF0320057
:1008D00002F030FAFB7B184607F11007BD4680BDD9
:1008E00080B483B000AF78607B68DB685B6903F03D
:1008F0000103184607F10C07BD4680BC704700BFD6
:1009000080B582B000AF78607868FFF7E9FF0346F2
:10091000012B0CBF00230123DBB2184607F10807A7
:10092000BD4680BD80B485B000AF78604FF0000355
:10093000FB607B68DB685B69FB607B68DB689B69ED
:10094000FA681340FB60FB68184607F11407BD46C0
:1009500080BC704780B485B000AF78600B46FB70F8
:100960007B681B691B68FB60FB7803F00303DAB24A
:10097000FB6862F30103FB607B681B69FA681A601D
:1009800007F11407BD4680BC704700BF80B58CB02E
:1009900000AF78604FF0000387F82B304FF0000372
:1009A0007B624FF000033B624FF00003FB614FF0AE
:1009B0000003BB614FF000037B617B68D3F80C310F
:1009C0004FF000021A607B681B691B683B623B6A40
:1009D0006FF3CC233B627B681B693A6A1A607B68C1
:1009E000DB7A012B45D178684FF00301FFF7B2FFA6
:1009F0007B68DB684FF080025A62FB694FF040026F
:100A000062F31F43FB61FB694FF0800262F30F0347
:100A1000FB617B68DB68FA699A62BA8BFB8BD3183F
:100A20009BB23B83BB694FF0800262F31F43BB6103
:100A30007B68DB68BA69C3F804213A8B7B8BD318D7
:100A40009BB23B83BB696FF31F43BB617B68DB6871
:100A5000BA69C3F808213A8B7B8BD3189BB23B83CE
:100A6000BB696FF31F43BB617B68DB68BA69C3F87E
:100A70000C2178684FF01001FFF78AFE7868FFF7C5
:100A8000C7FE7B681B694FF000021A617B681B6917
:100A90004FF000025A617B681B694FF0FF329A6188
:100AA0007B681B694FF00002DA614FF00003FB62C4
:100AB00043E07A68FB6A03F104034FEA8303D31827
:100AC0009B681B687B6297F8273023F07F03DBB2BB
:100AD000002B0BD04FF000037B627B6A43F0804316
:100AE0007B627B6A43F000637B6202E04FF00003AD
:100AF0007B627A68FB6A03F104034FEA8303D3182D
:100B00009B687A6A1A607A68FB6A03F104034FEA09
:100B10008303D3189B684FF000021A617A68FB6A5E
:100B200003F104034FEA8303D3189B684FF0FF02DD
:100B30009A60FB6A03F10103FB627B685B781A46EB
:100B4000FB6A9A42B5D84FF00003FB6242E07A6834
:100B5000FB6A03F114034FEA8303D3185B681B6835
:100B6000FB60FB7B23F07F03DBB2002B0BD04FF04D
:100B70000003FB60FB6843F08043FB60FB6843F0CD
:100B80000063FB6002E04FF00003FB607A68FB6AE1
:100B900003F114034FEA8303D3185B68FA681A6001
:100BA0007A68FB6A03F114034FEA8303D3185B6886
:100BB0004FF000021A617A68FB6A03F114034FEAEE
:100BC0008303D3185B684FF0FF029A60FB6A03F15E
:100BD0000103FB627B685B781A46FB6A9A42B6D8CF
:100BE0004FF000037B617B6943F480737B617B681A
:100BF0001B697A68126911697A696FEA0202114009
:100C00007A690A431A617B68DB78012B1ED14FF0A9
:100C100000033B613B6943F001033B613B6943F0E7
:100C200002033B613B694FF0400262F38A033B6180
:100C30003B6943F480333B613B694FF0400262F310
:100C400059433B617B681B693A691A63786800F015
:100C500007F897F82B30184607F13007BD4680BDDE
:100C600080B584B000AF78604FF00003FB734FF0A5
:100C70000003BB607B68DB684FF000029A617B6811
:100C8000DB686FF080425A617868FFF7D5FA7B68BD
:100C9000DB78002B03D1BB6843F01003BB60BB685B
:100CA00043F40063BB60BB6843F48053BB60BB6824
:100CB00043F40053BB60BB6843F48023BB60BB6854
:100CC00043F40023BB60BB6843F00803BB60BB6810
:100CD00043F48013BB60BB6843F40013BB607B68C4
:100CE000DB687A68D2689169BA686FEA02021140DB
:100CF000BA680A439A61FB7B184607F11007BD46A4
:100D000080BD00BF80B485B000AF78604FF00003B5
:100D1000FB737B681B699B68BB60BB68C3F34103C3
:100D2000DBB2022B0BD0032B05D0012B03D04FF0ED
:100D30000303FB7307E04FF00203FB7303E04FF084
:100D40000103FB7300BFFB7B184607F11407BD4688
:100D500080BC704780B487B000AF78604FF000036C
:100D6000FB754FF00003BB607B681B699B683B61B0
:100D70007B689B691B68FB603B69C3F34103DBB283
:100D8000022B04D0FB686FF30A03FB6006E0FB68EC
:100D90004FF0030262F30A03FB6000BF7B689B69AC
:100DA000FA681A60BB6843F48073BB607B681B6998
:100DB0007A6812695168BA686FEA02021140BA682B
:100DC0000A435A60FB7D184607F11C07BD4680BCEC
:100DD000704700BF80B487B000AF786039604FF0D3
:100DE0000003FB744FF00003FB604FF00003BB6097
:100DF0003B685B78012B12D13B681B787A6803F162
:100E000004034FEA8303D3189B687B613B681B781C
:100E10004FF0010202FA03F39BB23B8114E03B68FE
:100E20001B787A6803F114034FEA8303D3185B68D5
:100E30007B613B681B784FF0010202FA03F39AB220
:100E4000BB6862F31F43BB607B691B68FB607B7BF5
:100E500023F07F03DBB2002B29D13B689B689BB258
:100E60004FEA43534FEA53539AB2FB6862F30A03C3
:100E7000FB603B68DB7803F00303DAB2FB6862F3E4
:100E80009343FB603B68DB88DBB203F00F03DAB20D
:100E9000FB6862F39953FB60FB6843F08053FB608F
:100EA000FB6843F40043FB60FA687B691A607B6867
:100EB0001B697A681269D169BA680A43DA61FB7CF6
:100EC000184607F11C07BD4680BC704780B487B048
:100ED00000AF786039604FF00003FB744FF00003FF
:100EE000FB604FF00003BB603B685B78012B12D1C5
:100EF0003B681B787A6803F104034FEA8303D31835
:100F00009B687B613B681B784FF0010202FA03F398
:100F10009BB23B8114E03B681B787A6803F11403B1
:100F20004FEA8303D3185B687B613B681B784FF003
:100F3000010202FA03F39AB2BB6862F31F43BB607B
:100F4000FB686FF3CF33FB60FA687B691A607B68DC
:100F50001B697A681269D169BA686FEA02020A40AD
:100F6000DA61FB7C184607F11C07BD4680BC704760
:100F700080B588B000AF786039604FF00003FB7730
:100F80004FF00003BB614FF000037B614FF00003A3
:100F90003B613B685B78012B40F0BD803B681B7870
:100FA0007A6803F104034FEA8303D3189B681B6834
:100FB0007B613B681B787A6803F104034FEA830383
:100FC000D3189B681B693B613B685B69002B0AD1A6
:100FD0003B696FF312033B613B694FF0010262F31F
:100FE000DC433B6128E03B685B6923F07F4222F4ED
:100FF00078023B6962F312033B613B685A693B68C4
:101000009B68D31803F1FF323B689B68B2FBF3F394
:101010009BB24FEA83534FEA93539AB23B6962F310
:10102000DC433B613B68DB78012B05D13B694FF02A
:10103000010262F35E733B613B681B787A6803F1DF
:1010400004034FEA8303D3189B683A691A617B68EB
:10105000DB78012B0CD13B681B787A6803F1040321
:101060004FEA8303D3189B683A6812695A6116E005
:101070003B68DB78012B12D03B685B69002B0ED0FC
:101080003B681B784FF0010202FA03F3BB617B68F7
:101090001B697A681269516BBA690A435A633B68E3
:1010A000DB78012B14D17B681B699B68FB60FB68B4
:1010B000C3F30D239BB203F00103002B04D17B6922
:1010C00043F000537B6103E07B6943F080537B6115
:1010D0007B6943F080637B617B6943F000437B6104
:1010E0003B681B787A6803F104034FEA8303D31843
:1010F0009B687A691A603B68DB78012B40F09A8024
:101100003B68D9683B681A783B685B699BB2786832
:10111000FFF708F98EE03B681B787A6803F1140347
:101120004FEA8303D3185B681B687B613B681B78BD
:101130007A6803F114034FEA8303D3185B681B69D1
:101140003B613B685B69002B10D13B689B6823F0D7
:101150007F4222F478023B6962F312033B613B69F0
:101160004FF0010262F3DC433B6124E03B685A69C3
:101170003B689B68D31803F1FF323B689B68B2FB66
:10118000F3F39BB24FEA83534FEA93539AB23B690E
:1011900062F3DC433B613B69C3F3C9439BB23A68EA
:1011A000926802FB03F323F07F4222F478023B694A
:1011B00062F312033B613B681B787A6803F1140306
:1011C0004FEA8303D3185B683A691A617B68DB785E
:1011D000012B0BD13B681B787A6803F114034FEAAB
:1011E0008303D3185B683A6812695A613B68DB78FD
:1011F000012B0CD13B685B79002B04D07B6943F059
:1012000000537B6103E07B6943F080537B617B6922
:1012100043F080637B617B6943F000437B613B6803
:101220001B787A6803F114034FEA8303D3185B68D1
:101230007A691A60FB7F184607F12007BD4680BD1A
:1012400080B489B000AF786039604FF00003FB775D
:101250004FF00003BB614FF000033B614FF0000310
:10126000BB603B685B78012B75D17B689B697B61B8
:101270007B691B683B617B691B69BB603B685B6981
:10128000002B0AD13B7A6FF306033B72BB7A4FF017
:10129000010262F3C403BB7224E03B685A693B68F5
:1012A0009B689A420ED93B689A683B685A613B68D2
:1012B0009B68DBB203F07F03DAB23B7A62F306038A
:1012C0003B7209E03B685B69DBB203F07F03DAB293
:1012D0003B7A62F306033B72BB7A4FF0010262F382
:1012E000C403BB72BA687B691A617B68DB78012B27
:1012F0000BD13B681B787A6803F104034FEA830340
:10130000D3189B683A6812695A613B6943F080635D
:101310003B613B6943F000433B613A697B691A607A
:101320007B68DB78002B40F083803B685B69002B97
:101330007ED03B681B784FF0010202FA03F3BA69D2
:101340001343BB617B681B697A681269516BBA6988
:101350000A435A636CE03B681B787A6803F1140314
:101360004FEA8303D3185B681B683B613B681B78BB
:101370007A6803F114034FEA8303D3185B681B698F
:10138000BB603B685B69002B10D13B689B68DBB29C
:1013900003F07F03DAB23B7A62F306033B72BB7A57
:1013A0004FF0010262F3C403BB7213E03B689A681A
:1013B0003B685A613B689B68DBB203F07F03DAB29B
:1013C0003B7A62F306033B72BB7A4FF0010262F391
:1013D000C403BB723B681B787A6803F114034FEABD
:1013E0008303D3185B68BA681A617B68DB78012BCA
:1013F0000BD13B681B787A6803F114034FEA83032F
:10140000D3185B683A6812695A613B6943F080639C
:101410003B613B6943F000433B613B681B787A6862
:1014200003F114034FEA8303D3185B683A691A6027
:10143000FB7F184607F12407BD4680BC704700BFFC
:1014400080B487B000AF786039604FF00003FB755F
:101450004FF00003FB603B685B78012B1ED13B68BB
:101460001B787A6803F104034FEA8303D3189B685F
:101470003B613B691B68FB60FB7B23F07F03DBB2B6
:10148000002B03D0FB6843F08043FB60FB6843F410
:101490000013FB60FA683B691A6013E03B681B7835
:1014A0007A6803F114034FEA8303D3185B683B6146
:1014B0003B691B68FB60FB6843F40013FB60FA6840
:1014C0003B691A60FB7D184607F11C07BD4680BCCE
:1014D000704700BF80B487B000AF786039604FF0CC
:1014E0000003FB744FF00003FB603B685B78012B4B
:1014F0000AD13B681B787A6803F104034FEA83033F
:10150000D3189B687B6109E03B681B787A6803F11C
:1015100014034FEA8303D3185B687B617B691B6804
:10152000FB60FB686FF35553FB603B68DB78032B74
:1015300003D03B68DB78022B03D1FB6843F0805378
:10154000FB60FA687B691A60FB7C184607F11C0790
:10155000BD4680BC704700BF80B485B000AF7860E6
:101560007B681B699B69FB607B681B69DB69FA68A8
:101570001340FB60FB684FEA1343184607F114075A
:10158000BD4680BC704700BF80B485B000AF7860B6
:101590000B46FB70FB787A6803F114034FEA830370
:1015A000D3185B689B68FB607B681B695B69FA68A2
:1015B0001340FB60FB68184607F11407BD4680BC6A
:1015C000704700BF80B485B000AF78607B681B694E
:1015D0009B69FB607B681B69DB69FA681340FB60F1
:1015E000FB684FEA03434FEA1343184607F1140719
:1015F000BD4680BC704700BF80B487B000AF786044
:101600004FF000033B61FB7C43F0C003FB74BB7CE9
:101610004FF0010262F3C403BB743B7C4FF018022D
:1016200062F306033B747B685B6D3A691A617B6801
:10163000DB78012B17D14FF00003FB607B685B6DFB
:101640007A6802F2CC525A617B685B6D1B68FB6062
:10165000FB6843F00043FB604FF08023FB607B6836
:101660005B6DFA681A6007F11C07BD4680BC7047C5
:1016700080B485B000AF78607B689B7A002B1BD06C
:101680007B681B699B68FB603B7B03F00103DBB25B
:10169000002B11D07B6803F586731B68BB60BB68A9
:1016A0006FF34103BB60BB686FF30003BB607B68F3
:1016B000D3F80C31BA681A6007F11407BD4680BC34
:1016C000704700BF80B400AFBD4680BC704700BF0C
:1016D00080B483B000AF0346FB7107F10C07BD4631
:1016E00080BC704780B400AFBD4680BC704700BF6F
:1016F00080B400AFBD4680BC704700BF80B400AF6F
:10170000BD4680BC704700BF80B582B000AF44F6D4
:101710007C43C0F600037B6040F20003C2F200038A
:101720003B600BE07B681A683B681A603B6803F11A
:1017300004033B607B6803F104037B603A6840F27A
:101740001013C2F200039A42ECD3094809494FF042
:1017500000028842B8BF40F8042BFFF6FAAF01F050
:10176000DFF800F07DFC07F10807BD4680BD0000F2
:10177000100100206008002080B400AFFEE700BF29
:1017800080B584B000AF0346FB71FA7944F640336C
:10179000C0F6000353F8223018464FF0010100F064
:1017A000DDFDFA7944F63833C0F6000333F8123021
:1017B000BB604FF001033B734FF00003BB734FF06E
:1017C0000103FB734FF002037B73FA7940F21C03B1
:1017D000C2F2000353F8222007F10803104619460D
:1017E00000F0A8FF07F11007BD4680BD80B483B0AC
:1017F00000AF0346FB71FA7940F21C03C2F200030A
:1018000053F82220F97940F21C03C2F2000353F886
:1018100021305969F87944F63833C0F6000333F8BB
:1018200010304B40536107F10C07BD4680BC704738
:1018300080B588B000AF02460B46FA71BB71FA79E9
:1018400044F65433C0F6000353F8223018464FF0E4
:10185000010100F083FD4FF480404FF0010100F0E2
:10186000D1FD4FF000033B774FF00003FB77FA798F
:1018700044F65033C0F6000333F81230BB61FA79F6
:1018800040F22C03C2F2000353F8222007F11803A0
:101890001046194600F04EFFBB79012B3AD1FA7978
:1018A00044F65C33C0F600039A5CF97944F6603381
:1018B000C0F600035B5C10461946FEF765FCFA793A
:1018C00044F65833C0F6000333F812303B614FF052
:1018D00000033B754FF008037B754FF00103BB75A8
:1018E00007F11003184602F0DBFCFA7944F6643382
:1018F000C0F600039B5C3B734FF00F037B734FF00C
:101900000F03BB734FF00103FB7307F10C03184681
:1019100002F086FD07F12007BD4680BD80B582B08C
:1019200000AF78600B46FB7078684FF081014FF094
:101930003F024FF0030302F07FFE78684FF0010191
:101940004FF03F024FF0030302F076FE78684FF04D
:10195000010140F21C12C2F200024FF03F0302F0FC
:1019600009FF4FF00003184607F10807BD4680BD88
:1019700080B582B000AF78600B46FB7078684FF09E
:10198000810102F0B3FE78684FF0010102F0AEFE73
:101990004FF00003184607F10807BD4680BD00BFA1
:1019A00080B584B000AF786039604FF00003FB81F0
:1019B0004FF00003BB603B681B7803F06003002B13
:1019C00053D0202B40F096803B685B78A3F1020354
:1019D000092B42D801A252F823F000BF471A000891
:1019E000191A00085B1A00085B1A00085B1A000845
:1019F0005B1A00085B1A00085B1A00082D1A000821
:101A0000051A00083B685B88DBB21A4640F21413E3
:101A1000C2F200031A6027E0786840F21411C2F2A3
:101A200000014FF0010202F0F7FF1DE03B685B8808
:101A30004FEA13239BB2DBB21A4640F21813C2F2EC
:101A400000031A6010E0786840F21811C2F2000139
:101A50004FF0010202F0E0FF06E07868396801F01B
:101A6000FFFD4FF0020347E044E03B685B780A2B40
:101A70002CD00B2B34D0062B3CD13B685B884FEA33
:101A800013239BB2222B0BD13B68DB88172B28BF7B
:101A90001723FB8140F28803C2F20003BB600EE013
:101AA0003B685B884FEA13239BB2212B07D1154B70
:101AB000BB603B68DB88092B28BF0923FB81FB89BE
:101AC0007868B9681A4602F0A7FF13E0786840F218
:101AD0001011C2F200014FF0010202F09DFF09E077
:101AE0003B685B88DBB21A4640F21013C2F2000377
:101AF0001A6000BF4FF00003184607F11007BD46FB
:101B000080BD00BF6E00002080B584B000AFF860DB
:101B1000B9601346FB80FB6893F81231032B06D1A2
:101B2000FB88F8684FF08101BA6802F06BFE4FF055
:101B30000003184607F11007BD4680BD80B483B08E
:101B400000AF03463960FB713B684FF029021A80F1
:101B500040F25C03C2F20003184607F10C07BD46D1
:101B600080BC704780B582B000AF78600B46FB70D8
:101B700078684FF0810102F015FF4FF0000318461E
:101B800007F10807BD4680BD80B584B000AF78601E
:101B90000B46FB70FB78012B02D04FF0020333E0C1
:101BA000FA78796813464FEA83039B184FEAC30318
:101BB000CB1803F563731B68BB814FF00003FB7305
:101BC00011E097F90F2097F90F1040F21C13C2F2A1
:101BD0000003595C40F2AC13C2F200039954FB7B42
:101BE00003F10103FB7397F90F303F2BE9DD7868B0
:101BF0004FF0010140F21C12C2F200024FF03F030D
:101C000002F0B8FD4FF00003184607F11007BD467B
:101C100080BD00BF80B584B000AFF8607A603B60E3
:101C20000B46FB72F86800F0B5FFF86800F01EF88C
:101C3000FB683A68C3F8E425FB68BA69C3F8E8258D
:101C4000FB687A68C3F8EC25FB7AF868194602F05D
:101C500059FCFB68D3F8E8351B689847F86801F031
:101C60001FF807F11007BD4680BD00BF80B483B0E8
:101C700000AF78604FF00003184607F10C07BD462F
:101C800080BC704780B584B000AF786007F108036E
:101C90007868194601F09AFC3B7A03F01F03012B88
:101CA0000AD0022B0FD0002B14D107F1080378685B
:101CB000194601F04FF816E007F108037868194655
:101CC00001F09AF80FE007F108037868194601F06F
:101CD000C9F808E03B7A23F07F03DBB27868194645
:101CE00002F0D4FD00BF4FF00003184607F11007C3
:101CF000BD4680BD80B584B000AF78600B46FB70F8
:101D0000FB78002B45D17B6803F55D73FB607B6836
:101D100093F81131032B4FD1FB68DA69FB689B689C
:101D20009A4221D9FB68DA69FB689B68D21AFB6882
:101D3000DA617B68DB78012B06D1FB68DA68FB6827
:101D40009B68D218FB68DA60FB68DA68FB68996800
:101D5000FB68DB69994238BF0B469BB27868114635
:101D60001A4602F095FE27E07B68D3F8E4351B693C
:101D7000002B0AD07B6893F81231032B05D17B68C6
:101D8000D3F8E4351B6978689847786802F098FEC4
:101D900012E07B68D3F8E4359B69002B0CD07B689C
:101DA00093F81231032B07D17B68D3F8E4359B6994
:101DB000FA787868114698474FF00003184607F103
:101DC0001007BD4680BD00BF80B584B000AF78600D
:101DD0000B46FB70FB78002B63D17B6803F58E7399
:101DE000FB607B6893F81131022B6ED1FB68DA69D6
:101DF000FB689B689A421CD9FB68DA69FB689B68A0
:101E0000D21AFB68DA617B68DB78012B06D1FB68AC
:101E1000DA68FB689B68D218FB68DA60FB68DA68EE
:101E2000FB68DB699BB2786811461A4602F018FE1F
:101E30004BE0FB681B6AFA689268B3FBF2F102FBA5
:101E400001F29B1A002B17D1FB681A6AFB689B688A
:101E50009A4211D3FB681A6AFB685B6A9A420BD2FA
:101E600078684FF000014FF0000202F0F9FDFB68C6
:101E70004FF000025A6229E07B68D3F8E435DB6852
:101E8000002B0AD07B6893F81231032B05D17B68B5
:101E9000D3F8E435DB6878689847786802F02EFE5E
:101EA00013E07B68D3F8E4355B69002B0ED07B68C8
:101EB00093F81231032B09D17B68D3F8E4355B69C1
:101EC000FA7878681146984700E000BF4FF00003A9
:101ED000184607F11007BD4680BD00BF80B582B02F
:101EE00000AF786078684FF000014FF040024FF08B
:101EF000000302F0A1FB78684FF080014FF0400230
:101F00004FF0000302F098FB7B684FF0010283F86A
:101F100012217B68D3F8E8355B687A6892781046BE
:101F200098474FF00003184607F10807BD4680BDEB
:101F300080B582B000AF78607B68D3F8E8351B6964
:101F400098477B684FF0030283F812214FF000039B
:101F5000184607F10807BD4680BD00BF80B582B0B6
:101F600000AF78607B684FF0040283F812217B6831
:101F7000D3F8E835DB6898474FF00003184607F1BF
:101F80000807BD4680BD00BF80B582B000AF786055
:101F90007B68D3F8E435DB69002B05D07B68D3F888
:101FA000E435DB69786898474FF00003184607F17D
:101FB0000807BD4680BD00BF80B582B000AF786025
:101FC0000B46FB707B68D3F8E4351B68FA787868B9
:101FD000114698477B68D3F8E8359B6898474FF0DF
:101FE0000003184607F10807BD4680BD80B582B0E2
:101FF00000AF78600B46FB707B68D3F8E4355B6814
:10200000FA787868114698474FF00003184607F1B0
:102010000807BD4680BD00BF80B582B000AF7860C4
:102020007B68D3F8E4351B6A786898474FF0000363
:10203000184607F10807BD4680BD00BF80B582B0D5
:1020400000AF78607B68D3F8E4355B6A78689847BE
:102050004FF00003184607F10807BD4680BD00BFDA
:1020600080B584B002AF4FF00100FFF789FB4FF05D
:102070000000FFF785FB4FF00200FFF781FB4FF0F8
:102080000300FFF77DFB4FF000004FF00001FFF76A
:10209000CFFB40F20003C2F20003009340F22C2079
:1020A000C2F200004FF0010140F2D002C2F2000281
:1020B00040F23003C2F20003FFF7ACFD4FF0010025
:1020C000FFF75EFB4FF00000FFF75AFB4FF00200F6
:1020D000FFF756FB4FF00300FFF752FB4FF6FF7080
:1020E00000F010F94FF000037B604FF000033B60FD
:1020F00011E040F2AC13C2F200037A689B181A7820
:1021000040F2EC13C2F2000379685B181A707B6826
:1021100003F101037B607B683F2BEAD94FF000039A
:102120003B6040F2EC13C2F200031B78742B20D109
:1021300040F2EC13C2F200035B78652B19D140F238
:10214000EC13C2F200039B78732B12D140F2EC1314
:10215000C2F20003DB78742B0BD144F66830C0F672
:10216000000000F07BF844F67C30C0F6000000F080
:1021700075F840F2EC13C2F200031B786C2B69D1A6
:1021800040F2EC13C2F200035B78652B62D140F29F
:10219000EC13C2F200039B78642B5BD140F2EC138A
:1021A000C2F20003DB78332B0FD14FF00100FFF7B1
:1021B0001DFB44F68830C0F6000000F04FF844F6EE
:1021C0007C30C0F6000000F049F840F2EC13C2F297
:1021D0000003DB78342B0FD14FF00000FFF706FB34
:1021E00044F6A830C0F6000000F038F844F67C3021
:1021F000C0F6000000F032F840F2EC13C2F2000327
:10220000DB78352B0FD14FF00200FFF7EFFA44F6E1
:10221000C830C0F6000000F021F844F67C30C0F66B
:10222000000000F01BF840F2EC13C2F20003DB7870
:10223000362B0FD14FF00300FFF7D8FA44F6E43005
:10224000C0F6000000F00AF844F67C30C0F600004A
:1022500000F004F800F030F840E700BF80B584B02B
:1022600000AF78604FF00003FB6010E07B681A78E5
:1022700040F26C13C2F20003F9685B181A70FB6835
:1022800003F10103FB607B6803F101037B607B6862
:102290001B78002BEAD1FB689BB240F22C20C2F2E3
:1022A000000040F26C11C2F200011A46FFF72CFC4C
:1022B00007F11007BD4680BD80B483B000AF4FF07A
:1022C00000037B6015E040F2EC13C2F200037A6871
:1022D0009B184FF000021A7040F2AC13C2F20003D8
:1022E0007A689B184FF000021A707B6803F10103B3
:1022F0007B607B683F2BE6DD07F10C07BD4680BCA9
:10230000704700BF80B485B000AF78604FF0000325
:10231000FB607A6813464FEA03139B1A4FEAC30324
:102320001A4644F62513C2F29243A3FB0213D21AB3
:102330004FEA52029B184FEA9303BB6000E000BFD4
:10234000FB6803F10103FB60FA68BB689A42F6D9A7
:1023500000BF07F11407BD4680BC704780B483B04E
:1023600000AF78600B46FB70FB78002B0CD04FF46D
:102370006053C4F202034FF46052C4F20202116BC4
:102380007A680A431A630DE04FF46053C4F2020303
:102390004FF46052C4F20202116B7A686FEA0202D3
:1023A0000A401A6307F10C07BD4680BC704700BFA6
:1023B00080B483B000AF78600B46FB70FB78002BD5
:1023C0000CD04FF46053C4F202034FF46052C4F2D5
:1023D0000202516B7A680A435A630DE04FF460536E
:1023E000C4F202034FF46052C4F20202516B7A68E5
:1023F0006FEA02020A405A6307F10C07BD4680BC2F
:10240000704700BF80B483B000AF78600B46FB70AC
:10241000FB78002B0CD04FF46053C4F202034FF44E
:102420006052C4F20202516C7A680A435A640DE0A9
:102430004FF46053C4F202034FF46052C4F202023C
:10244000516C7A686FEA02020A405A6407F10C077D
:10245000BD4680BC704700BF80B483B000AF7860D9
:102460000B46FB70FB78002B0CD04FF46053C4F28A
:1024700002034FF46052C4F20202116A7A680A43FE
:102480001A620DE04FF46053C4F202034FF460523D
:10249000C4F20202116A7A686FEA02020A401A6202
:1024A00007F10C07BD4680BC704700BF80B400AF89
:1024B000BD4680BC704700BF80B400AFFEE700BFE0
:1024C00080B400AFFEE700BF80B400AFFEE700BFFE
:1024D00080B400AFFEE700BF80B400AFBD4680BC53
:1024E000704700BF80B400AFBD4680BC704700BFDE
:1024F00080B400AFBD4680BC704700BF80B400AF61
:10250000BD4680BC704700BF80B500AF40F22C23B1
:10251000C2F200039B7A002B13D04EF61053CEF27A
:1025200000034EF61052CEF20002126822F00602AC
:102530001A6000F0F5F940F22C20C2F20000FFF71B
:1025400097F84FF4802001F047FF80BD80B500AFC1
:1025500040F22C20C2F2000001F014F980BD00BF4F
:1025600080B483B000AF03463960FB713B684FF025
:1025700012021A8040F2EC03C2F20003184607F17F
:102580000C07BD4680BC704780B483B000AF0346E3
:102590003960FB713B684FF004021A8040F20C1363
:1025A000C2F20003184607F10C07BD4680BC704715
:1025B00080B582B000AF03463960FB71FB79002B18
:1025C0000BD144F60440C0F6000040F62001C2F2F0
:1025D00000013A6801F06CF80AE044F61840C0F6D1
:1025E000000040F62001C2F200013A6801F060F8F4
:1025F00040F62003C2F20003184607F10807BD4663
:1026000080BD00BF80B582B000AF03463960FB716A
:1026100044F62C40C0F6000040F62001C2F2000152
:102620003A6801F045F840F62003C2F2000318466C
:1026300007F10807BD4680BD80B582B000AF0346F4
:102640003960FB71FB79002B0BD144F64040C0F69A
:10265000000040F62001C2F200013A6801F028F8BB
:102660000AE044F65040C0F6000040F62001C2F2F5
:1026700000013A6801F01CF840F62003C2F20003A2
:10268000184607F10807BD4680BD00BF80B582B07F
:1026900000AF03463960FB71FB79002B0BD144F688
:1026A0006040C0F6000040F62001C2F200013A6826
:1026B00000F0FEFF0AE044F66040C0F6000040F67D
:1026C0002001C2F200013A6800F0F2FF40F6200358
:1026D000C2F20003184607F10807BD4680BD00BFDF
:1026E00080B582B000AF03463960FB71FB79002BE7
:1026F0000BD144F66C40C0F6000040F62001C2F257
:1027000000013A6800F0D4FF0AE044F66C40C0F6DD
:10271000000040F62001C2F200013A6800F0C8FF54
:1027200040F62003C2F20003184607F10807BD4631
:1027300080BD00BF80B487B000AF786039604FF0D3
:1027400000037B614FF000033B614FF00003FB602F
:102750004FF000037B6186E07B694FF0010202FAD3
:1027600003F33B613B681A683B691340FB60FA68FE
:102770003B699A4273D17B681A687B694FEA4303CD
:102780004FF0030101FA03F36FEA03031A407B6879
:102790001A607B681A683B681B7919467B694FEAA7
:1027A000430301FA03F31A437B681A603B681B7901
:1027B000012B03D03B681B79022B34D17B689A68CC
:1027C0007B694FEA43034FF0030101FA03F36FEA19
:1027D00003031A407B689A607B689A683B685B7960
:1027E00019467B694FEA430301FA03F31A437B68F6
:1027F0009A607B685A687B699BB24FF0010101FACD
:1028000003F36FEA03031A407B685A607B685A68D7
:102810003B689B7919467B699BB201FA03F39BB233
:102820001A437B685A607B68DA687B699BB24FEA1F
:1028300043034FF0030101FA03F36FEA03031A4065
:102840007B68DA607B68DA683B68DB7919467B690C
:102850004FEA430301FA03F31A437B68DA607B69AA
:1028600003F101037B617B690F2B7FF675AF07F1E5
:102870001C07BD4680BC704780B485B000AF78604F
:1028800013460A467A807B704FF00003FB604FF0DE
:102890000003BB607A787B8803F007034FEA830369
:1028A00002FA03F3FB607B884FEAD3039BB21A461C
:1028B0007B884FEAD3039BB219467B6801F108017C
:1028C00053F821107B8803F007034FEA83034FF08E
:1028D0000F0000FA03F36FEA030319407B6802F16B
:1028E000080243F822107B884FEAD3039BB21A46B2
:1028F0007B6802F1080253F82220FB681343BB6097
:102900007B884FEAD3039BB21A467B6802F1080228
:10291000B96843F8221007F11407BD4680BC704720
:1029200080B500AF4FF46053C4F202034FF460521D
:10293000C4F20202126842F001021A604FF46053BE
:10294000C4F202034FF000029A604FF46053C4F2E5
:1029500002034FF46052C4F20202126822F0847241
:1029600022F480321A604FF46053C4F2020343F23F
:102970001002C2F200425A604FF46053C4F20203E4
:102980004FF46052C4F20202126822F480221A60EC
:102990004FF46053C4F202034FF00002DA6000F01B
:1029A00009F84FF46D43CEF200034FF000629A60D5
:1029B00080BD00BF80B483B000AF4FF000037B60E8
:1029C0004FF000033B604FF46053C4F202034FF436
:1029D0006052C4F20202126842F480321A604FF46C
:1029E0006053C4F202031B6803F400333B607B684E
:1029F00003F101037B603B68002B03D17B68B3F5D7
:102A0000A06FECD14FF46053C4F202031B6803F4CF
:102A10000033002B03D04FF001033B6002E04FF086
:102A200000033B603B68012B40F082804FF4605311
:102A3000C4F202034FF46052C4F20202126C42F07C
:102A400080521A644FF4E043C4F200034FF4E042B2
:102A5000C4F20002126842F480421A604FF46053DC
:102A6000C4F202034FF46052C4F2020292689A6008
:102A70004FF46053C4F202034FF46052C4F20202F6
:102A8000926842F400429A604FF46053C4F2020329
:102A90004FF46052C4F20202926842F4A0529A606B
:102AA0004FF46053C4F2020345F20842C0F2407290
:102AB0005A604FF46053C4F202034FF46052C4F200
:102AC0000202126842F080721A6000BF4FF4605335
:102AD000C4F202031B6803F00073002BF6D04FF41E
:102AE0007053C4F2020340F205621A604FF460535F
:102AF000C4F202034FF46052C4F20202926822F060
:102B000003029A604FF46053C4F202034FF4605220
:102B1000C4F20202926842F002029A6000BF4FF4CF
:102B20006053C4F202039B6803F00C03082BF6D138
:102B30004FF46053C4F202034FF46052C4F2020235
:102B4000926822F400029A604FF46053C4F20203C8
:102B50004FF44052C5F20002C3F884204FF4605392
:102B6000C4F202034FF46052C4F20202126842F04F
:102B700080621A6000BF4FF46053C4F202031B6806
:102B800003F00063002BF6D007F10C07BD4680BCB4
:102B9000704700BF80B584B000AF78604FF001008F
:102BA0004FF00101FFF7DAFB4FF4D853BB604FF051
:102BB00003037B734FF002033B734FF00003BB73BF
:102BC0004FF00003FB7307F108034FF00000C4F25D
:102BD00002001946FFF7AEFD4FF00000C4F20200FC
:102BE0004FF008014FF00A02FFF746FE4FF00000D9
:102BF000C4F202004FF009014FF00A02FFF73CFE59
:102C00004FF00000C4F202004FF00B014FF00A0237
:102C1000FFF732FE4FF00000C4F202004FF00C014B
:102C20004FF00A02FFF728FE4FF48063BB604FF0BD
:102C30000103BB734FF00103FB734FF003037B737E
:102C400007F108034FF00000C4F202001946FFF735
:102C500071FD4FF00000C4F202004FF00A014FF086
:102C60000A02FFF709FE4FF480404FF00101FFF721
:102C7000C9FB4FF080004FF00101FFF799FB4FF0C7
:102C800080504FF00101FFF7E7FB4FF000004FF0DD
:102C90000001FEF7CDFD07F11007BD4680BD00BF66
:102CA00080B584B000AF78604FF4C06001F0A4FB41
:102CB0004FF043033B734FF001037B734FF003036B
:102CC000BB734FF00103FB7307F10C03184601F0CF
:102CD000A7FB07F11007BD4680BD00BF80B485B0DB
:102CE00000AF78604FF00003FB607A6813464FEA4C
:102CF00003139B1A4FEAC3031A4644F62513C2F284
:102D00009243A3FB0213D21A4FEA52029B184FEAD6
:102D10009303BB6000E000BFFB6803F10103FB60AD
:102D2000FA68BB689A42F6D900BF07F11407BD469E
:102D300080BC704780B582B000AF78607B684FF48C
:102D40007A7202FB03F31846FFF7C8FF07F1080782
:102D5000BD4680BD80B584B000AF786039604FF06B
:102D60000003FB733B685B78092B3AD801A252F849
:102D700023F000BFC52D0008D92D0008E32D000861
:102D8000CF2D0008E32D0008A72D00089D2D000879
:102D9000E32D0008BB2D0008B12D000878683968C4
:102DA00000F052F922E07868396800F031FA1DE04D
:102DB0007868396800F06CFA18E07868396800F0D3
:102DC00001FB13E07868396800F030FB0EE07868AA
:102DD000396800F05FFB09E07868396800F0CAFBE9
:102DE00004E07868396800F03BFC00BFFB7B1846C4
:102DF00007F11007BD4680BD80B584B000AF786094
:102E000039604FF00003FB737B6893F81231032B9A
:102E10001BD13B689B88DBB2012B11D87B68D3F8B0
:102E2000E4359B687868396898473B68DB88002BF5
:102E300010D1FB7B002B0DD1786801F041FE09E039
:102E40007868396800F00CFC04E07868396800F0B4
:102E500007FC00E000BFFB7B184607F11007BD46EA
:102E600080BD00BF80B584B000AF786039604FF09E
:102E70000003FB733B689B88BB733B685B78012B4B
:102E800039D0032B02D0002B6CD0D5E07B6893F8AF
:102E90001231022B02D0032B0CD025E0BB7B002B80
:102EA00027D0BB7B802B24D0BB7B7868194601F0F0
:102EB000EDFC1EE03B685B88002B0AD1BB7B002B3E
:102EC00007D0BB7B802B04D0BB7B7868194601F010
:102ED000DDFC7B68D3F8E4359B68786839689847EF
:102EE000786801F0EDFD05E07868396800F0B8FB1E
:102EF00000E000BFA1E07B6893F81231022B02D002
:102F0000032B0CD025E0BB7B002B27D0BB7B802B79
:102F100024D0BB7B7868194601F0B8FC1EE03B6802
:102F20005B88002B1CD1BB7B002B0ED0BB7B802B86
:102F30000BD0BB7B7868194601F0EEFC7B68D3F8B8
:102F4000E4359B68786839689847786801F0B8FD7F
:102F500006E07868396800F083FB02E000BF00E01B
:102F600000BF6AE07B6893F81231022B02D0032B7A
:102F70000CD05AE0BB7B002B5CD0BB7B802B59D0A4
:102F8000BB7B7868194601F081FC53E0BB7B5BB2E8
:102F9000002B1FDABB7B03F07F02796813464FEAF0
:102FA00083039B184FEAC303CB1803F58C739B79FB
:102FB000002B07D040F25C13C2F200034FF0010275
:102FC0001A6028E040F25C13C2F200034FF00002E6
:102FD0001A6020E0BB7B5BB2002B1CDBBA7B7968FC
:102FE00013464FEA83039B184FEAC303CB1803F53C
:102FF0005C739B79002B07D040F25C13C2F2000394
:103000004FF001021A6006E040F25C13C2F20003C6
:103010004FF000021A60786840F25C11C2F20001C1
:103020004FF0020201F0F8FC05E07868396800F022
:1030300017FB00E000BF00E000BFFB7B184607F174
:103040001007BD4680BD00BF80B584B000AF78607A
:1030500039603B685B884FEA13239BB203F1FF336F
:10306000062B00F2B58001A252F823F08930000847
:10307000BD300008EB300008D1310008D131000824
:10308000BD310008C73100087B68D3F8EC351B68F8
:103090007A68917807F10A02084611469847F86065
:1030A0003B68DB88402B05D07B6893F81231012BFD
:1030B00040F093804FF008037B818EE07B68D3F86B
:1030C000E4359B6A7A68917807F10A02084611464E
:1030D0009847F860FB6803F101034FF002021A7091
:1030E0007B68FA68C3F8F02578E03B685B88DBB260
:1030F000052B5DD801A252F823F000BF153100085E
:103100002F31000849310008633100087D31000883
:10311000973100087B68D3F8EC355B687A68917862
:1031200007F10A02084611469847F86045E07B68B7
:10313000D3F8EC359B687A68917807F10A02084663
:1031400011469847F86038E07B68D3F8EC35DB68C7
:103150007A68917807F10A02084611469847F860A4
:103160002BE07B68D3F8EC351B697A68917807F11E
:103170000A02084611469847F8601EE07B68D3F8BB
:10318000EC355B697A68917807F10A0208461146C6
:103190009847F86011E07B68D3F8EC359B697A6852
:1031A000917807F10A02084611469847F86004E052
:1031B0007868396800F054FA25E00FE078683968DB
:1031C00000F04EFA1FE07868396800F049FA1AE01A
:1031D0007868396800F044FA15E000BF7B89002B5D
:1031E00011D03B68DB88002B0DD03B68DA887B89E7
:1031F0009A4238BF13469BB27B817B897868F96815
:103200001A4601F009FC07F11007BD4680BD00BF5A
:1032100080B584B000AF786039603B689B88002B34
:103220002ED13B68DB88002B2AD13B685B88DBB260
:1032300003F07F03FB737B6893F81231032B04D1F7
:103240007868396800F00CFA1EE07B68FA7B83F836
:103250001421FB7B7868194601F0C0FB786801F007
:103260002FFCFB7B002B05D07B684FF0020283F81C
:10327000122109E07B684FF0010283F8122103E07C
:103280007868396800F0ECF907F11007BD4680BD99
:1032900080B582B000AF786039603B685B88DAB295
:1032A00040F26813C2F200031A7040F26813C2F2CF
:1032B00000031B78012B04D97868396800F0D0F935
:1032C0007CE07B6893F81231022B02D0032B25D0CF
:1032D0006FE040F26813C2F200031B78002B19D094
:1032E00040F26813C2F200031A787B6883F8102159
:1032F0007B684FF0030283F8122140F26813C2F298
:1033000000031B7878681946FEF756FE786801F0CE
:10331000D7FB53E0786801F0D3FB4FE040F268132D
:10332000C2F200031B78002B19D17B684FF0020218
:1033300083F8122140F26813C2F200031A787B6806
:1033400083F8102140F26813C2F200031B787868FA
:103350001946FEF74BFE786801F0B2FB2EE07B6861
:1033600093F8102140F26813C2F200031B789A42CE
:103370001BD07B6893F8103178681946FEF736FE4B
:1033800040F26813C2F200031A787B6883F81021B8
:1033900040F26813C2F200031B7878681946FEF702
:1033A0000BFE786801F08CFB08E0786801F088FB80
:1033B00004E07868396800F053F900BF07F10807A6
:1033C000BD4680BD80B582B000AF786039603B6893
:1033D000DB88012B04D07868396800F041F920E0DF
:1033E0007B6893F81231022B02D0032B0AD013E032
:1033F000786840F26011C2F200014FF0010201F062
:103400000BFB0EE07B6803F58873786819464FF074
:10341000010201F001FB04E07868396800F020F94E
:1034200000BF07F10807BD4680BD00BF80B582B070
:1034300000AF786039607B6893F81231A3F1020322
:10344000012B1DD87B68D3F81831002B07D040F230
:103450006413C2F200034FF003021A6006E040F268
:103460006413C2F200034FF001021A60786840F260
:103470006411C2F200014FF0010201F0CDFA04E044
:103480007868396800F0ECF800BF07F10807BD461E
:1034900080BD00BF80B584B000AF786039604FF068
:1034A0000003FB733B685B88012B0FD17B684FF0F7
:1034B0000102C3F818217B68D3F8E4359B6878686B
:1034C00039689847786801F0FBFA4FE03B685B8801
:1034D000022B4BD13B689B88DBB2002B46D17B682B
:1034E0001B695B68BB603B689B884FEA13239BB2F8
:1034F000FB73FB7B03F1FF33042B30D801A252F89E
:1035000023F000BF193500082735000835350008BD
:103510004335000851350008BB684FF0010262F3E3
:103520000613BB601BE0BB684FF0020262F3061398
:10353000BB6014E0BB684FF0030262F30613BB608C
:103540000DE0BB684FF0040262F30613BB6006E0B7
:10355000BB684FF0050262F30613BB6000BF7B68D7
:103560001B69BA685A60786801F0AAFA07F1100777
:10357000BD4680BD80B582B000AF786039607B68A1
:1035800093F81231A3F10203012B13D83B685B8837
:10359000012B15D17B684FF00002C3F818217B681E
:1035A000D3F8E4359B68786839689847786801F003
:1035B00087FA05E07868396800F052F800BF00E04B
:1035C00000BF07F10807BD4680BD00BF80B483B0CF
:1035D00000AF786039607B6893F8CC253B681A703F
:1035E0007B6893F8CD253B685A707B6893F8CE359D
:1035F0001A467B6893F8CF354FEA03239BB2D31862
:103600009AB23B685A807B6893F8D0351A467B683B
:1036100093F8D1354FEA03239BB2D3189AB23B6893
:103620009A807B6893F8D2351A467B6893F8D33535
:103630004FEA03239BB2D3189AB23B68DA803B6807
:10364000DB881A467B68C3F840217B684FF0010293
:1036500083F8112107F10C07BD4680BC704700BFFD
:1036600080B582B000AF786039603B681B78DBB210
:103670005BB2002B05DA78684FF0800101F006F9A3
:103680000EE03B68DB88002B05D178684FF08001A5
:1036900001F0FCF804E078684FF0000101F0F6F862
:1036A0007868FDF7A9FF07F10807BD4680BD00BF98
:1036B00080B586B000AFF860B9607A604FF0000363
:1036C000FB75FB68002B3DD0F86800F03FF803461F
:1036D00003F101039BB24FEA43039AB27B681A805D
:1036E000FB7DBA68D3187A681288D2B21A70FB7D53
:1036F00003F10103FB75FB7DBA68D3184FF0030299
:103700001A70FB7D03F10103FB7517E0FB7DBA68BE
:10371000D318FA6812781A70FB7D03F10103FB7568
:10372000FB6803F10103FB60FB7DBA68D3184FF01F
:1037300000021A70FB7D03F10103FB75FB681B7827
:10374000002BE3D107F11807BD4680BD80B485B0DA
:1037500000AF78604FF00003FB7307E0FB7B03F1E1
:103760000103FB737B6803F101037B607B681B78BB
:10377000002BF3D1FB7B184607F11407BD4680BC34
:10378000704700BF80B586B000AF78604FF000038F
:103790007B617868FDF7B4F80346002B00F09E804B
:1037A0007868FDF7BFF803463B613B69002B02D107
:1037B0004FF0000393E0BB7C03F00803DBB2002B67
:1037C00006D0786800F026FA03467A6913437B61D5
:1037D000BB7C03F00403DBB2002B06D0786800F05A
:1037E00031F903467A6913437B613B7C03F00203A2
:1037F000DBB2002B0AD04FF00003FB60FB6843F004
:103800000203FB607B68DB68FA685A61FB7C23F08B
:103810007F03DBB2002B06D0786800F065F8034622
:103820007A6913437B617B7C03F00803DBB2002BD6
:1038300006D0786800F09EF803467A6913437B61EE
:103840003B7C03F00803DBB2002B06D0786800F065
:10385000A3FA03467A6913437B613B7C03F01003B0
:10386000DBB2002B06D0786800F0B4FA03467A6920
:1038700013437B617B7C03F01003DBB2002B06D08B
:10388000786800F0B5FB03467A6913437B617B7C63
:1038900003F02003DBB2002B06D0786800F054FC64
:1038A00003467A6913437B61BB7C03F01003DBB2F0
:1038B000002B06D0786800F08BFC03467A6913432E
:1038C0007B61BB7C03F02003DBB2002B06D0786861
:1038D00000F09CFC03467A6913437B617B691846C0
:1038E00007F11807BD4680BD80B586B000AF78608F
:1038F0007B689B7A002B11D07B6803F586731B686D
:10390000FB60FB686FF34103FB60FB686FF3000330
:10391000FB607B68D3F80C31FA681A604FF0000343
:103920003B613B6943F001033B617B681B697A683B
:10393000126951683A696FEA02020A405A6040F21D
:10394000CC03C2F200031B689B69786898474FF06C
:1039500000037B617B6943F000437B617B68DB682C
:103960007A695A614FF00103184607F11807BD46FE
:1039700080BD00BF80B586B000AF78604FF0000317
:10398000FB727B6893F81231FB7240F2CC03C2F2F7
:1039900000031B685B69786898477B681B699B68B4
:1039A000FB604FF000037B617B6943F400637B6144
:1039B0007B68DB687A695A617B689B7A002B39D017
:1039C0003B7B03F00103DBB2002B33D07B6893F821
:1039D0001531012B2ED1FB7ADBB2032B2AD14FF00C
:1039E00000033B613B6943F001033B617B68D3F813
:1039F0000C317A68D2F80C2111683A690A431A60CE
:103A00003B6943F002033B617B68D3F80C317A6871
:103A1000D2F80C2111683A690A431A604FF46D43D9
:103A2000CEF200034FF46D42CEF20002126942F072
:103A300006021A614FF00103184607F11807BD4648
:103A400080BD00BF80B586B000AF78604FF0000346
:103A50003B614FF00003BB607868FDF7B3FD786110
:103A6000CDE07B6903F00103002B00F0C0803B69CF
:103A7000DBB27868194600F0E7FB0346BB603B7A8F
:103A800003F00103DBB2002B3AD03B694FF0010297
:103A900002FA03F3FB607B681B697A681269516B59
:103AA000FA686FEA02020A405A634FF00003BB60F3
:103AB000BB6843F00103BB607A683B6903F1040310
:103AC0004FEA8303D3189B68BA689A6040F2CC032C
:103AD000C2F200031B685B683A69D2B2786811468B
:103AE00098477B68DB78012B0AD13B69002B07D113
:103AF0007B6893F81131042B02D17868FDF77CFDC7
:103B00003B7A03F00803DBB2002B10D04FF0000328
:103B1000BB60BB6843F00803BB607A683B6903F194
:103B200004034FEA8303D3189B68BA689A603B7A10
:103B300003F01003DBB2002B10D04FF00003BB608A
:103B4000BB6843F01003BB607A683B6903F1040370
:103B50004FEA8303D3189B68BA689A603B7A03F0F4
:103B60004003DBB2002B10D04FF00003BB60BB68FA
:103B700043F04003BB607A683B6903F104034FEAFA
:103B80008303D3189B68BA689A603B7A03F00203F8
:103B9000DBB2002B10D04FF00003BB60BB6843F0DA
:103BA0000203BB607A683B6903F104034FEA8303B5
:103BB000D3189B68BA689A603B7A23F07F03DBB224
:103BC000002B14D07868396900F090F94FF00003A9
:103BD000BB60BB6843F08003BB607A683B6903F15C
:103BE00004034FEA8303D3189B68BA689A603B6961
:103BF00003F101033B617B694FEA53037B617B69FE
:103C0000002B7FF42EAF4FF00103184607F1180781
:103C1000BD4680BD80B586B000AF78604FF0000330
:103C20003B614FF00003FB607868FDF795FC78611D
:103C3000A6E07B6903F00103002B00F099803B694B
:103C4000DBB278681946FDF79FFC0346FB603B7BBF
:103C500003F00103DBB2002B54D04FF00003FB60F4
:103C6000FB6843F00103FB607A683B6903F11403CE
:103C70004FEA8303D3185B68FA689A607B68DB7845
:103C8000012B25D17A683B6903F114034FEA8303C2
:103C9000D3185B681B69BB6079683A6913464FEAC1
:103CA00083039B184FEAC303CB1803F55F731A68AD
:103CB000BB68C3F31203D11A78683A6913464FEA16
:103CC00083039B184FEAC303C31803F5637319609A
:103CD00040F2CC03C2F200031B681B683A69D2B2FF
:103CE0007868114698477B68DB78012B0AD13B69DD
:103CF000002B07D17B6893F81131052B02D178682E
:103D0000FDF77AFC3B7B03F00203DBB2002B10D003
:103D10004FF00003FB60FB6843F00203FB607A682E
:103D20003B6903F114034FEA8303D3185B68FA6815
:103D30009A603B7B03F00803DBB2002B18D040F203
:103D4000CC03C2F200031B689B68786898474FF069
:103D50000003FB60FB6843F00803FB607A683B6983
:103D600003F114034FEA8303D3185B68FA689A607F
:103D70003B6903F101033B617B694FEA53037B61BC
:103D80007B69002B7FF455AF4FF00103184607F114
:103D90001807BD4680BD00BF80B584B000AF786015
:103DA00040F2CC03C2F200031B68DB6878689847D6
:103DB0004FF00003FB60FB6843F00803FB607B6887
:103DC000DB68FA685A614FF00103184607F11007E3
:103DD000BD4680BD80B586B000AF78604FF000036F
:103DE0003B613B6943F010033B617B68DB687A68A9
:103DF000D26891693A696FEA02020A409A617B6867
:103E0000DB681B6AFB60FB68C3F30303DBB21A4683
:103E100013464FEA83039B184FEAC30303F55C7311
:103E20007A68D31803F104037B61FB68C3F343434F
:103E3000DBB203F1FF33052B46D801A252F823F081
:103E4000C93E0008593E0008C93E0008C93E0008A6
:103E5000C93E0008A33E0008BA8947F6F073134034
:103E60009BB2002B32D07B69DA68FB68C3F30A137C
:103E70009BB2786811461A46FCF796FA7B69DA68B5
:103E8000FB68C3F30A139BB2D2187B69DA607B69C3
:103E90009A69FB68C3F30A139BB2D2187B699A61D3
:103EA00014E07B6803F2CC53786819464FF008029F
:103EB000FCF77AFA7B699A69FB68C3F30A139BB231
:103EC000D2187B699A6102E000BF00E000BF7B6806
:103ED000DB687A68D26891693A690A439A614FF05F
:103EE0000103184607F11807BD4680BD80B586B0AE
:103EF00000AF786039604FF000037B614FF0000342
:103F0000BB603A6813464FEA83039B184FEAC3032A
:103F100003F58C737A68D31803F10403FB60FB6824
:103F20005A69FB689B69D31A7B61FB689A687B6955
:103F30009A4202D2FB689B687B617B6903F10303B1
:103F40004FEA93033B617A683B6803F104034FEA4D
:103F50008303D3189B689B69BB6032E0FB685A6996
:103F6000FB689B69D31A7B61FB689A687B699A42FC
:103F700002D2FB689B687B617B6903F103034FEA14
:103F800093033B61FB68D9683B68DAB27B699BB2FB
:103F90007868FCF7C7F9FB68DA687B69D218FB68B8
:103FA000DA60FB689A697B69D218FB689A617A6863
:103FB0003B6803F104034FEA8303D3189B689B69B2
:103FC000BB603B891A463B699A4209D9FB689A69EA
:103FD000FB685B699A4203D2FB685B69002BBDD129
:103FE0004FF00103184607F11807BD4680BD00BF1A
:103FF00080B58AB000AF78604FF000033B614FF0AE
:1040000000033B624FF00003FB614FF00003BB6114
:104010004FF000037B614FF00003FB603B6943F00E
:1040200001033B617B681B697A68126951683A69D0
:104030006FEA02020A405A6078684FF00001FCF70C
:10404000A7FB4FF000037B6219E07A687B6A03F1FB
:1040500004034FEA8303D3189B684FF0FF029A6072
:104060007A687B6A03F114034FEA8303D3185B6811
:104070004FF0FF029A607B6A03F101037B627B6869
:104080005B781A467B6A9A42DFD87B681B694FF0DF
:10409000FF329A613B6A4FF0010262F30F033B6209
:1040A0003B6A4FF0010262F31F433B627B681B696E
:1040B0003A6ADA61FB6943F00803FB61FB6943F08C
:1040C0000103FB61FB6943F00203FB617B681B6931
:1040D000FA695A61BB6943F00103BB61BB6943F0F4
:1040E0000803BB61BB6943F00203BB617B681B69CA
:1040F000BA691A617B681B691B687B617B696FF316
:104100000A137B617B681B697A691A607868FDF71E
:1041100073FA4FF00003FB60FB6843F48053FB60CD
:104120007B68DB68FA685A6140F2CC03C2F2000394
:104130001B681B69786898474FF00103184607F120
:104140002807BD4680BD00BF80B584B000AF786051
:104150007868FCF7FFFD7B68DB68DB68BB6078682C
:10416000FCF7D0FD0346032B0ED17B684FF0000215
:104170009A707B684FF400729A80BB684FF0090216
:1041800062F38D23BB600DE07B684FF001029A70F3
:104190007B684FF040029A80BB684FF0050262F3E3
:1041A0008D23BB607B68DB68BA68DA604FF0000380
:1041B000FB60FB6843F40053FB607B68DB68FA68D4
:1041C0005A614FF00103184607F11007BD4680BD44
:1041D00080B584B000AF78604FF00003FB6040F220
:1041E000CC03C2F200031B68DB6978689847FB6860
:1041F00043F48013FB607B68DB68FA685A614FF018
:104200000103184607F11007BD4680BD80B584B094
:1042100000AF78604FF00003FB6040F2CC03C2F2C5
:1042200000031B681B6A78689847FB6843F4001317
:10423000FB607B68DB68FA685A614FF0010318463F
:1042400007F11007BD4680BD80B487B000AF78602D
:104250000B46FB707B681B691B697B617B681B6974
:104260005B6B3B61FB783A6922FA03F34FEAC313B5
:10427000DBB27A6913437B61FB787A6803F104034C
:104280004FEA8303D3189B689A687B691340FB60ED
:10429000FB68184607F11C07BD4680BC704700BF8D
:1042A00080B485B000AF78604FF00003FB604FF43E
:1042B0007053C4F20103FB607B689B79002B78D0BC
:1042C0004FF47053C4F201034FF47052C4F2010270
:1042D00011687A6812686FEA02020A401A604FF4A5
:1042E0007053C4F201034FF47052C4F201025168DA
:1042F0007A6812686FEA02020A405A607B681B798A
:10430000FA68D318FB60FB68FA6811687A6812686B
:104310000A431A604FF47053C4F201034FF4705211
:10432000C4F2010291687A6812686FEA02020A40D8
:104330009A604FF47053C4F201034FF47052C4F208
:104340000102D1687A6812686FEA02020A40DA60F4
:104350007B685B79102B1AD14FF47053C4F20103C0
:104360004FF47052C4F2010291687A6812680A43ED
:104370009A604FF47053C4F201034FF47052C4F2C8
:104380000102D1687A6812680A43DA601FE04FF4CC
:104390007053C4F20103FB607B685B79FA68D31841
:1043A000FB60FB68FA6811687A6812680A431A6051
:1043B0000DE07B681B79FA68D318FB60FB68FA682C
:1043C00011687A6812686FEA02020A401A6007F1FF
:1043D0001407BD4680BC704780B483B000AF7860DE
:1043E0004FF47053C4F201037A685A6107F10C0765
:1043F000BD4680BC704700BF80B483B000AF78601A
:104400004FF46D43CEF200037A6842F0BF6242F48B
:104410000032DA6007F10C07BD4680BC704700BF70
:1044200080B485B000AF78604FF00003FB734FF0AD
:104430000003BB734FF00F037B737B68DB78002BAB
:1044400045D04FF46D43CEF20003DB686FEA0303FF
:1044500003F4E0634FEA1323FB73FB7BC3F1040314
:10446000BB737A7BFB7B42FA03F37B737B685B78DD
:104470001A46BB7B02FA03F3FB737B689A787B7B5B
:104480001340DAB2FB7B1343FB73FB7B4FEA03134E
:10449000FB734FF46143CEF200037A6812789B18E5
:1044A000FA7B83F800234FF46143CEF200037A686D
:1044B00012784FEA5212D2B27968097801F01F01DE
:1044C0004FF0010000FA01F143F8221014E04FF41C
:1044D0006143CEF200037A6812784FEA5212D2B2E8
:1044E0007968097801F01F014FF0010000FA01F12D
:1044F00002F1200243F8221007F11407BD4680BCE8
:10450000704700BF80B584B000AF78600B46FB7089
:10451000FB7878681946FBF77BFF7B684FF0010258
:1045200083F812217B684FF0000283F814214FF0CA
:104530000003FB602DE0FA6813464FEA83039B18E3
:104540004FEAC30303F58C737A68D31803F10403AD
:10455000BB60BB684FF001025A70FB68DAB2BB68FF
:104560001A70FB689AB2BB68DA80BB684FF0000231
:10457000DA70BB684FF040029A60BB684FF00002EF
:10458000DA60BB684FF000025A61FB6803F1010377
:10459000FB607B685B781A46FB689A42CBD84FF089
:1045A0000003FB602DE0FA6813464FEA83039B1873
:1045B0004FEAC30303F55C737A68D31803F104036D
:1045C000BB60BB684FF000025A70FB68DAB2BB6890
:1045D0001A70FB689AB2BB68DA80BB684FF00002C1
:1045E000DA70BB684FF040029A60BB684FF000027F
:1045F000DA60BB684FF000025A61FB6803F1010307
:10460000FB607B685B781A46FB689A42CBD8786877
:10461000FCF79EF87868FBF7D5FF78684FF000014B
:10462000FCF72CF97868FCF7B1F97868FCF772F8B8
:1046300007F11007BD4680BD80B584B000AF78603B
:10464000F9703A80BB70FB785BB2002B10DAFB7814
:1046500003F07F0213464FEA83039B184FEAC3031C
:1046600003F58C737A68D31803F10403FB600FE041
:10467000FB7803F07F0213464FEA83039B184FEA4F
:10468000C30303F55C737A68D31803F10403FB607A
:10469000FB7803F07F03DAB2FB681A70FB784FEA0D
:1046A000D313DBB21A46FB685A703A88FB689A60EB
:1046B000FB68BA78DA70FB685B78002B04D0FB6883
:1046C0001B781A46FB68DA80BB78022B03D1FB68A3
:1046D0004FF000021A717868F968FCF77BFB4FF025
:1046E0000003184607F11007BD4680BD80B584B0B1
:1046F00000AF78600B46FB70FB785BB2002B10DAE2
:10470000FB7803F07F0213464FEA83039B184FEABE
:10471000C30303F58C737A68D31803F10403FB60B9
:104720000FE0FB7803F07F0213464FEA83039B18E8
:104730004FEAC30303F55C737A68D31803F10403EB
:10474000FB60FB7803F07F03DAB2FB681A70FB783A
:104750004FEAD313DBB21A46FB685A707868F968DF
:10476000FCF7B4FB4FF00003184607F11007BD46F5
:1047700080BD00BF80B586B000AFF8607A600A46A1
:10478000FA723B81FB7A03F07F0213464FEA830300
:104790009B184FEAC30303F55C73FA68D31803F15F
:1047A00004037B617B697A68DA603A897B695A61C4
:1047B0007B694FF000029A617B694FF000025A70EA
:1047C000FB7A03F07F03DAB27B691A70FB68DB784F
:1047D000012B02D17A687B691A617B691B78002BF7
:1047E00004D1F8687969FCF72BFD03E0F868796972
:1047F000FCF7BEFB4FF00003184607F11807BD4653
:1048000080BD00BF80B586B000AFF8607A603B60C5
:104810000B46FB72FB7A03F07F0213464FEA8303D9
:104820009B184FEAC30303F58C73FA68D31803F19E
:1048300004037B617B694FF001025A70FB7A03F03D
:104840007F03DAB27B691A707B697A68DA607A680A
:104850007B691A617B694FF000029A617B693A6853
:104860005A617B691B78002B04D1F8687969FCF7E1
:10487000E7FC03E0F8687969FCF77AFB4FF0000386
:10488000184607F11807BD4680BD00BF80B584B04B
:1048900000AF78600B46FB70FB785BB2002B10DA40
:1048A000FB7803F07F0213464FEA83039B184FEA1D
:1048B000C30303F58C737A68D31803F10403FB6018
:1048C0000DE0FA7813464FEA83039B184FEAC303BF
:1048D00003F55C737A68D31803F10403FB60FB688B
:1048E0004FF001029A70FB7803F07F03DAB2FB68A5
:1048F0001A70FB784FEAD313DBB21A46FB685A7082
:104900007868F968FCF79CFD4FF00003184607F142
:104910001007BD4680BD00BF80B584B000AF786091
:104920000B46FB70FB785BB2002B10DAFB7803F0D0
:104930007F0213464FEA83039B184FEAC30303F534
:104940008C737A68D31803F10403FB600DE0FA78E6
:1049500013464FEA83039B184FEAC30303F55C73C6
:104960007A68D31803F10403FB60FB684FF0000280
:104970009A70FB7803F07F03DAB2FB681A70FB7859
:104980004FEAD313DBB21A46FB685A707868F968AD
:10499000FCF7A0FD4FF00003184607F11007BD46D5
:1049A00080BD00BF80B582B000AF78600B46FB7061
:1049B000FB785BB2002B07DAFB7803F07F037868A3
:1049C0001946FBF7E5FE02E07868FBF721FF4FF0A0
:1049D0000003184607F10807BD4680BD80B485B0C6
:1049E00000AF78600B46FB704FF00003FB60FB7874
:1049F00003F07F03DAB2FB6862F30A13FB607B68A3
:104A00001B697A6812691168FA680A431A6007F12B
:104A10001407BD4680BC704780B586B000AFF86013
:104A2000B9601346FB804FF00003FB75FA88FB6802
:104A3000C3F83C21FA88FB68C3F83821FB684FF0C3
:104A4000020283F81121FB88F8684FF00001BA6870
:104A5000FFF7D8FEFB7D184607F11807BD4680BD5D
:104A600080B586B000AFF860B9601346FB804FF0A8
:104A70000003FB75FB88F8684FF00001BA68FFF788
:104A8000C1FEFB7D184607F11807BD4680BD00BF7B
:104A900080B586B000AFF860B9601346FB804FF078
:104AA0000003FB75FB88F8684FF00001BA68FFF758
:104AB00061FEFB7D184607F11807BD4680BD00BFAB
:104AC00080B584B000AF78604FF00003FB737B6863
:104AD0004FF0040283F8112178684FF000014FF085
:104AE00000024FF00003FFF78DFE7868FCF784FDAD
:104AF000FB7B184607F11007BD4680BD80B584B02A
:104B000000AF78604FF00003FB737B684FF0050245
:104B100083F8112178684FF000014FF000024FF048
:104B20000003FFF727FE7868FCF766FDFB7B18465D
:104B300007F11007BD4680BD001000200040008036
:104B40000800000008000000080000000800000045
:104B50000100000001000000010000000000000052
:104B6000000000000600000054657374696E672041
:104B70003120322033202E202E202E007C7C7C7C85
:104B80007C7C7C7C7C0000004C454433284F726167
:104B90006E67652920686173206265656E20746F99
:104BA00067676C65642100004C4544342847726592
:104BB000656E2920686173206265656E20746F6779
:104BC000676C6564210000004C45443528526564DB
:104BD0002920686173206265656E20746F67676C59
:104BE000656421004C45443628426C75652920686F
:104BF0006173206265656E20746F67676C65642100
:104C00000000000048494420492F4F20696E204889
:104C100053204D6F6465000048494420492F4F20C0
:104C2000696E204653204D6F6465000053544D69F2
:104C300063726F656C656374726F6E696373000095
:104C4000303030303030303030313144000000000E
:104C500030303030303030303031314500000000FD
:104C600048494420436F6E66696700004849442004
:0C4C7000496E74657266616365000000A7
:104C7C00C5160008D1160008E5160008F116000844
:104C8C00FD1600080000000000000000000C0240AF
:104C9C00000C0240000C0240000C024000000240DC
:104CAC001D19000871190008A11900080000000066
:104CBC0000000000651B0008891B000800000000B4
:104CCC0000000000000000003D1B00080902290044
:104CDC00010100E032090400000203000000092178
:104CEC0000020001221700070581033F00010705A0
:104CFC0001033F0001000000058C0901A10109011D
:104D0C00150025FF953F7508810209029102C0002C
:104D1C00F51C0008C91D0008851C0008891F000827
:104D2C00DD1E00085D1F0008311F00081920000857
:104D3C003D2000080000000000000000A000002042
:104D4C00612500088925000805260008B125000802
:104D5C00392600088D260008E12600081201000201
:104D6C0000000040770420560002010203010000FD
:104D7C000A060002000000400100000004030904C0
:0400000508000000EF
:00000001FF
